:100000000C9434000C94FF020C9451000C94510099
:100010000C9451000C9451000C9451000C9451001C
:100020000C9451000C94ED020C9451000C9451006E
:100030000C9451000C9451000C9451000C945100FC
:100040000C9451000C9451000C9451000C945100EC
:100050000C9451000C9451000C9451000C945100DC
:100060000C9451000C94510011241FBECFEFD8E026
:10007000DEBFCDBF11E0A0E0B1E0EAE3F9E002C0ED
:1000800005900D92AC34B107D9F721E0ACE4B1E0B2
:1000900001C01D92A035B207E1F70E942E030C9417
:1000A0009B040C940000FC019191992339F08091FC
:1000B000C00085FFFCCF9093C600F6CF08952B9A21
:1000C00084EA87BD16BC84B5826084BD85B5816035
:1000D00085BDA99BFECF15BC82E085BB2B980895FA
:1000E000672B09F073C08A30910511F428980895A0
:1000F0008B30910511F4299808958C30910511F4F5
:100100002A9808958D30910511F42B9808958E301A
:10011000910511F42C9808958F30910511F42D98C4
:1001200008958031910511F42E980895813191053B
:1001300011F42F9808958431910511F44098089591
:100140008531910511F4419808958631910511F496
:10015000429808958731910511F4439808958831A4
:10016000910511F4449808958931910511F4459849
:1001700008958A31910511F4469808958E319105BC
:1001800011F4589808958F31910511F459980895F4
:100190008032910511F45A9808958132910511F435
:1001A0005B9808958232910511F45C98089583322A
:1001B000910511F45D9808958432910511F45E98CB
:1001C0000895859709F073C05F9808958A30910566
:1001D00011F4289A08958B30910511F4299A089505
:1001E0008C30910511F42A9A08958D30910511F4FF
:1001F0002B9A08958E30910511F42C9A08958F3022
:10020000910511F42D9A08958031910511F42E9ADB
:1002100008958131910511F42F9A08958431910543
:1002200011F4409A08958531910511F4419A089589
:100230008631910511F4429A08958731910511F4A0
:10024000439A08958831910511F4449A08958931AB
:10025000910511F4459A08958A31910511F4469A51
:1002600008958E31910511F4589A08958F319105B2
:1002700011F4599A08958032910511F45A9A08950B
:100280008132910511F45B9A08958232910511F43F
:100290005C9A08958332910511F45D9A0895843231
:1002A000910511F45E9A0895859709F45F9A08956F
:1002B000CF93C82F80FF03C061E070E002C060E010
:1002C00070E089E190E00E947000C1FF03C061E02E
:1002D00070E002C060E070E088E190E00E94700091
:1002E000C2FF03C061E070E002C060E070E08FE038
:1002F00090E00E947000C3FF03C061E070E002C0A4
:1003000060E070E086E190E00E947000C4FF03C0EE
:1003100061E070E002C060E070E082E290E00E9484
:100320007000C5FF03C061E070E002C060E070E0F3
:1003300085E190E00E947000C6FF03C061E070E0BC
:1003400002C060E070E084E190E00E947000C7FFAE
:1003500003C061E070E002C060E070E085E290E020
:10036000CF910C9470000F931F93CF938C01F801E1
:10037000C1918F01CC2311F161E070E08AE090E03F
:100380000E9470008C2F0E94580161E070E087E1AC
:1003900090E00E9470008FE99FE00197F1F700C0A4
:1003A000000060E070E087E190E00E947000EFE9FB
:1003B000FFE03197F1F700C00000D9CFCF911F9136
:1003C0000F91089580914C0190914D01892B31F04E
:1003D00080914C0190914D01039778F080914C01F0
:1003E00090914D01039760F080914C0190914D01E7
:1003F000059730F483E291E0C5C084E291E0C2C089
:1004000080914C0190914D01059748F080914C01ED
:1004100090914D01079718F482E291E0B3C080916A
:100420004C0190914D01079748F080914C019091BB
:100430004D01099718F481E291E0A4C080914C012C
:1004400090914D01099748F080914C0190914D0198
:100450000B9718F480E291E095C080914C01909147
:100460004D010B9748F080914C0190914D010D97F3
:1004700018F48FE191E086C080914C0190914D017C
:100480000D9748F080914C0190914D010F9718F411
:100490008EE191E077C080914C0190914D010F97D2
:1004A00030F080914C0190914D01419778F080910E
:1004B0004C0190914D01419760F080914C019091D9
:1004C0004D01439730F48CE191E05CC08DE191E007
:1004D00059C080914C0190914D01439748F0809113
:1004E0004C0190914D01459718F48BE191E04AC081
:1004F00080914C0190914D01459748F080914C01BD
:1005000090914D01479718F48AE191E03BC08091AA
:100510004C0190914D01479748F080914C0190918A
:100520004D01499718F489E191E02CC080914C016C
:1005300090914D01499748F080914C0190914D0167
:100540004B9718F488E191E01DC080914C01909187
:100550004D014D9748F080914C0190914D014F977E
:1005600018F487E191E00EC080914C0190914D010B
:10057000819750F080914C0190914D01839720F428
:1005800086E191E00E94B30180E091E00C94B30118
:10059000CF93C82F60E070E08AE090E00E94700086
:1005A0008C2F0E94580161E070E087E190E00E948A
:1005B00070008FE99FE00197F1F700C0000060E054
:1005C00070E087E190E00E9470008FE99FE0019762
:1005D000F1F700C00000CF9108951F920F920FB65F
:1005E0000F9211241092B1001092B20010924F019C
:1005F00010924E010F900FBE0F901F9018951F92F2
:100600000F920FB60F9211248F939F9380914E01FA
:1006100090914F01892B61F48091B10087608093A4
:10062000B10081E090E090934F0180934E010FC0A4
:100630001092B1008091B20090E090934D018093B0
:100640004C011092B20010924F0110924E019F91F6
:100650008F910F900FBE0F901F901895CF93DF933F
:10066000CDB7DEB72A970FB6F894DEBF0FBECDBF69
:100670001092C50087E68093C40088E08093C10093
:1006800086E08093C2008FEF84B915B887B98AB924
:1006900052981BB8E89A8091700081608093700036
:1006A00080916900816080936900219A8091800027
:1006B000826880938000809181008A6180938100AC
:1006C00080E49CE9909387008093860060E070E06E
:1006D0008AE090E00E94700060E070E087E190E0C6
:1006E0000E9470002FEF89EF90E0215080409040F1
:1006F000E1F700C0000080E30E94C8028FE19EE4A1
:100700000197F1F700C0000080E30E94C8028FE962
:100710009FE00197F1F700C0000080E30E94C8024B
:100720008FE39CE90197F1F700C0000088E30E9485
:10073000C8028CE00E94C80281E00E94C80286E0E4
:100740000E94C8029FEF20E782E091502040804045
:10075000E1F700C00000789480E80E94C80286E2B9
:1007600091E00E94B30192EEE92E94E0F92E02E3AB
:1007700010E0F0928900E09288009FEF26E781E088
:10078000915020408040E1F700C000000E945F00CF
:10079000C0904C01D0904D0180E391E00E94530045
:1007A0004AE0BE016A5F7F4FC6010E946604CE0127
:1007B00006960E9453008BE391E00E94530081E46F
:1007C00091E00E9453004AE0BE016F5F7F4FC80175
:1007D0000E946604CE0101960E94530089E491E0D4
:1007E0000E9453008FE99FE00197F1F700C00000DD
:1007F00080EC0E94C8020E94E2018FE99FE001970D
:10080000F1F700C000000F5F1F4F99E1E90EF11CE6
:10081000063A110509F0ADCF8DE1E82E80E1F82E02
:1008200005EA10E0F0928900E09288002FEF86E759
:1008300091E0215080409040E1F700C000000E940C
:100840005F00C0904C01D0904D0180E391E00E9488
:1008500053004AE0BE016A5F7F4FC6010E946604F2
:10086000CE0106960E9453008BE391E00E94530054
:1008700081E491E00E9453004AE0BE016F5F7F4F28
:10088000C8010E946604CE0101960E94530089E4CB
:1008900091E00E9453008FE99FE00197F1F700C0BB
:1008A000000080EC0E94C8020E94E2018FE99FE0F4
:1008B0000197F1F700C000000150110999E1E91A10
:1008C000F1080133110509F0ADCF46CFBB274A30FF
:1008D00031F4992322F4BDE2909581959F4F0C94B9
:1008E0007204BB27FB015527AA27880F991FAA1F4F
:1008F000A41710F0A41B83955051B9F7A05DAA333B
:1009000008F0A95DA193009779F7B111B193119205
:10091000CB010C948B04DC01FC01672F71917723D0
:10092000E1F7329704C07C916D9370836291AE17AA
:0A093000BF07C8F30895F894FFCF45
:10093A0020202020202020202020202020202020AD
:10094A002020202020002B2B2B2B2B2B2B2B2B2B4F
:10095A002B2B2B2B2B0044697374616E63653A0051
:10096A0044697374616E63653A200020636D2C20BC
:0C097A0000416E676C653A20002E0A00F8
:107E0000112484B714BE81FFF0D085E080938100F7
:107E100082E08093C00088E18093C10086E0809377
:107E2000C20080E18093C4008EE0C9D0259A86E02C
:107E300020E33CEF91E0309385002093840096BBD3
:107E4000B09BFECF1D9AA8958150A9F7CC24DD24C4
:107E500088248394B5E0AB2EA1E19A2EF3E0BF2EE7
:107E6000A2D0813461F49FD0082FAFD0023811F036
:107E7000013811F484E001C083E08DD089C08234E0
:107E800011F484E103C0853419F485E0A6D080C0E4
:107E9000853579F488D0E82EFF2485D0082F10E0AE
:107EA000102F00270E291F29000F111F8ED06801E7
:107EB0006FC0863521F484E090D080E0DECF843638
:107EC00009F040C070D06FD0082F6DD080E0C81688
:107ED00080E7D80618F4F601B7BEE895C0E0D1E017
:107EE00062D089930C17E1F7F0E0CF16F0E7DF06D8
:107EF00018F0F601B7BEE89568D007B600FCFDCFD4
:107F0000A601A0E0B1E02C9130E011968C91119780
:107F100090E0982F8827822B932B1296FA010C0160
:107F200087BEE89511244E5F5F4FF1E0A038BF0790
:107F300051F7F601A7BEE89507B600FCFDCF97BE46
:107F4000E89526C08437B1F42ED02DD0F82E2BD052
:107F50003CD0F601EF2C8F010F5F1F4F84911BD097
:107F6000EA94F801C1F70894C11CD11CFA94CF0C13
:107F7000D11C0EC0853739F428D08EE10CD085E9AC
:107F80000AD08FE07ACF813511F488E018D01DD067
:107F900080E101D065CF982F8091C00085FFFCCF94
:107FA0009093C60008958091C00087FFFCCF809118
:107FB000C00084FD01C0A8958091C6000895E0E648
:107FC000F0E098E1908380830895EDDF803219F02E
:107FD00088E0F5DFFFCF84E1DECF1F93182FE3DFCA
:107FE0001150E9F7F2DF1F91089580E0E8DFEE27F6
:047FF000FF270994CA
:027FFE00040479
:0400000300007E007B
:00000001FF
